{
    "contractName": "NFT",
    "abi": [
        {
            "inputs": [],
            "stateMutability": "nonpayable",
            "type": "constructor"
        },
        {
            "anonymous": false,
            "inputs": [
                {
                    "indexed": true,
                    "internalType": "address",
                    "name": "owner",
                    "type": "address"
                },
                {
                    "indexed": true,
                    "internalType": "address",
                    "name": "approved",
                    "type": "address"
                },
                {
                    "indexed": true,
                    "internalType": "uint256",
                    "name": "tokenId",
                    "type": "uint256"
                }
            ],
            "name": "Approval",
            "type": "event"
        },
        {
            "anonymous": false,
            "inputs": [
                {
                    "indexed": true,
                    "internalType": "address",
                    "name": "owner",
                    "type": "address"
                },
                {
                    "indexed": true,
                    "internalType": "address",
                    "name": "operator",
                    "type": "address"
                },
                {
                    "indexed": false,
                    "internalType": "bool",
                    "name": "approved",
                    "type": "bool"
                }
            ],
            "name": "ApprovalForAll",
            "type": "event"
        },
        {
            "anonymous": false,
            "inputs": [
                {
                    "indexed": true,
                    "internalType": "address",
                    "name": "from",
                    "type": "address"
                },
                {
                    "indexed": true,
                    "internalType": "address",
                    "name": "to",
                    "type": "address"
                },
                {
                    "indexed": true,
                    "internalType": "uint256",
                    "name": "tokenId",
                    "type": "uint256"
                }
            ],
            "name": "Transfer",
            "type": "event"
        },
        {
            "inputs": [
                {
                    "internalType": "address",
                    "name": "to",
                    "type": "address"
                },
                {
                    "internalType": "uint256",
                    "name": "tokenId",
                    "type": "uint256"
                }
            ],
            "name": "approve",
            "outputs": [],
            "stateMutability": "nonpayable",
            "type": "function"
        },
        {
            "inputs": [
                {
                    "internalType": "address",
                    "name": "owner",
                    "type": "address"
                }
            ],
            "name": "balanceOf",
            "outputs": [
                {
                    "internalType": "uint256",
                    "name": "",
                    "type": "uint256"
                }
            ],
            "stateMutability": "view",
            "type": "function",
            "constant": true
        },
        {
            "inputs": [
                {
                    "internalType": "uint256",
                    "name": "tokenId",
                    "type": "uint256"
                }
            ],
            "name": "getApproved",
            "outputs": [
                {
                    "internalType": "address",
                    "name": "",
                    "type": "address"
                }
            ],
            "stateMutability": "view",
            "type": "function",
            "constant": true
        },
        {
            "inputs": [
                {
                    "internalType": "address",
                    "name": "owner",
                    "type": "address"
                },
                {
                    "internalType": "address",
                    "name": "operator",
                    "type": "address"
                }
            ],
            "name": "isApprovedForAll",
            "outputs": [
                {
                    "internalType": "bool",
                    "name": "",
                    "type": "bool"
                }
            ],
            "stateMutability": "view",
            "type": "function",
            "constant": true
        },
        {
            "inputs": [],
            "name": "name",
            "outputs": [
                {
                    "internalType": "string",
                    "name": "",
                    "type": "string"
                }
            ],
            "stateMutability": "view",
            "type": "function",
            "constant": true
        },
        {
            "inputs": [
                {
                    "internalType": "uint256",
                    "name": "tokenId",
                    "type": "uint256"
                }
            ],
            "name": "ownerOf",
            "outputs": [
                {
                    "internalType": "address",
                    "name": "",
                    "type": "address"
                }
            ],
            "stateMutability": "view",
            "type": "function",
            "constant": true
        },
        {
            "inputs": [
                {
                    "internalType": "address",
                    "name": "from",
                    "type": "address"
                },
                {
                    "internalType": "address",
                    "name": "to",
                    "type": "address"
                },
                {
                    "internalType": "uint256",
                    "name": "tokenId",
                    "type": "uint256"
                }
            ],
            "name": "safeTransferFrom",
            "outputs": [],
            "stateMutability": "nonpayable",
            "type": "function"
        },
        {
            "inputs": [
                {
                    "internalType": "address",
                    "name": "from",
                    "type": "address"
                },
                {
                    "internalType": "address",
                    "name": "to",
                    "type": "address"
                },
                {
                    "internalType": "uint256",
                    "name": "tokenId",
                    "type": "uint256"
                },
                {
                    "internalType": "bytes",
                    "name": "_data",
                    "type": "bytes"
                }
            ],
            "name": "safeTransferFrom",
            "outputs": [],
            "stateMutability": "nonpayable",
            "type": "function"
        },
        {
            "inputs": [
                {
                    "internalType": "address",
                    "name": "operator",
                    "type": "address"
                },
                {
                    "internalType": "bool",
                    "name": "approved",
                    "type": "bool"
                }
            ],
            "name": "setApprovalForAll",
            "outputs": [],
            "stateMutability": "nonpayable",
            "type": "function"
        },
        {
            "inputs": [
                {
                    "internalType": "bytes4",
                    "name": "interfaceId",
                    "type": "bytes4"
                }
            ],
            "name": "supportsInterface",
            "outputs": [
                {
                    "internalType": "bool",
                    "name": "",
                    "type": "bool"
                }
            ],
            "stateMutability": "view",
            "type": "function",
            "constant": true
        },
        {
            "inputs": [],
            "name": "symbol",
            "outputs": [
                {
                    "internalType": "string",
                    "name": "",
                    "type": "string"
                }
            ],
            "stateMutability": "view",
            "type": "function",
            "constant": true
        },
        {
            "inputs": [],
            "name": "tokenCounter",
            "outputs": [
                {
                    "internalType": "uint256",
                    "name": "",
                    "type": "uint256"
                }
            ],
            "stateMutability": "view",
            "type": "function",
            "constant": true
        },
        {
            "inputs": [],
            "name": "tokenURI",
            "outputs": [
                {
                    "internalType": "string",
                    "name": "",
                    "type": "string"
                }
            ],
            "stateMutability": "view",
            "type": "function",
            "constant": true
        },
        {
            "inputs": [
                {
                    "internalType": "uint256",
                    "name": "tokenId",
                    "type": "uint256"
                }
            ],
            "name": "tokenURI",
            "outputs": [
                {
                    "internalType": "string",
                    "name": "",
                    "type": "string"
                }
            ],
            "stateMutability": "view",
            "type": "function",
            "constant": true
        },
        {
            "inputs": [
                {
                    "internalType": "address",
                    "name": "from",
                    "type": "address"
                },
                {
                    "internalType": "address",
                    "name": "to",
                    "type": "address"
                },
                {
                    "internalType": "uint256",
                    "name": "tokenId",
                    "type": "uint256"
                }
            ],
            "name": "transferFrom",
            "outputs": [],
            "stateMutability": "nonpayable",
            "type": "function"
        },
        {
            "inputs": [],
            "name": "createCollectible",
            "outputs": [
                {
                    "internalType": "uint256",
                    "name": "",
                    "type": "uint256"
                }
            ],
            "stateMutability": "nonpayable",
            "type": "function"
        }
    ],
    "bytecode": "0x608060405260405180606001604052806035815260200162002a6e603591396007908051906020019062000035929190620000f2565b503480156200004357600080fd5b506040518060400160405280600481526020017f53525331000000000000000000000000000000000000000000000000000000008152506040518060400160405280600481526020017f53525331000000000000000000000000000000000000000000000000000000008152508160009080519060200190620000c8929190620000f2565b508060019080519060200190620000e1929190620000f2565b505050600060068190555062000207565b8280546200010090620001d1565b90600052602060002090601f01602090048101928262000124576000855562000170565b82601f106200013f57805160ff191683800117855562000170565b8280016001018555821562000170579182015b828111156200016f57825182559160200191906001019062000152565b5b5090506200017f919062000183565b5090565b5b808211156200019e57600081600090555060010162000184565b5090565b7f4e487b7100000000000000000000000000000000000000000000000000000000600052602260045260246000fd5b60006002820490506001821680620001ea57607f821691505b60208210811415620002015762000200620001a2565b5b50919050565b61285780620002176000396000f3fe608060405234801561001057600080fd5b50600436106101005760003560e01c80636352211e11610097578063b88d4fde11610066578063b88d4fde146102ad578063c87b56dd146102c9578063d082e381146102f9578063e985e9c51461031757610100565b80636352211e1461021357806370a082311461024357806395d89b4114610273578063a22cb4651461029157610100565b80631e661710116100d35780631e6617101461019f57806323b872dd146101bd5780633c130d90146101d957806342842e0e146101f757610100565b806301ffc9a71461010557806306fdde0314610135578063081812fc14610153578063095ea7b314610183575b600080fd5b61011f600480360381019061011a91906117da565b610347565b60405161012c9190611822565b60405180910390f35b61013d610429565b60405161014a91906118d6565b60405180910390f35b61016d6004803603810190610168919061192e565b6104bb565b60405161017a919061199c565b60405180910390f35b61019d600480360381019061019891906119e3565b610540565b005b6101a7610658565b6040516101b49190611a32565b60405180910390f35b6101d760048036038101906101d29190611a4d565b610686565b005b6101e16106e6565b6040516101ee91906118d6565b60405180910390f35b610211600480360381019061020c9190611a4d565b610774565b005b61022d6004803603810190610228919061192e565b610794565b60405161023a919061199c565b60405180910390f35b61025d60048036038101906102589190611aa0565b610846565b60405161026a9190611a32565b60405180910390f35b61027b6108fe565b60405161028891906118d6565b60405180910390f35b6102ab60048036038101906102a69190611af9565b610990565b005b6102c760048036038101906102c29190611c6e565b6109a6565b005b6102e360048036038101906102de919061192e565b610a08565b6040516102f091906118d6565b60405180910390f35b610301610aaf565b60405161030e9190611a32565b60405180910390f35b610331600480360381019061032c9190611cf1565b610ab5565b60405161033e9190611822565b60405180910390f35b60007f80ac58cd000000000000000000000000000000000000000000000000000000007bffffffffffffffffffffffffffffffffffffffffffffffffffffffff1916827bffffffffffffffffffffffffffffffffffffffffffffffffffffffff1916148061041257507f5b5e139f000000000000000000000000000000000000000000000000000000007bffffffffffffffffffffffffffffffffffffffffffffffffffffffff1916827bffffffffffffffffffffffffffffffffffffffffffffffffffffffff1916145b80610422575061042182610b49565b5b9050919050565b60606000805461043890611d60565b80601f016020809104026020016040519081016040528092919081815260200182805461046490611d60565b80156104b15780601f10610486576101008083540402835291602001916104b1565b820191906000526020600020905b81548152906001019060200180831161049457829003601f168201915b5050505050905090565b60006104c682610bb3565b610505576040517f08c379a00000000000000000000000000000000000000000000000000000000081526004016104fc90611e04565b60405180910390fd5b6004600083815260200190815260200160002060009054906101000a900473ffffffffffffffffffffffffffffffffffffffff169050919050565b600061054b82610794565b90508073ffffffffffffffffffffffffffffffffffffffff168373ffffffffffffffffffffffffffffffffffffffff1614156105bc576040517f08c379a00000000000000000000000000000000000000000000000000000000081526004016105b390611e96565b60405180910390fd5b8073ffffffffffffffffffffffffffffffffffffffff166105db610c1f565b73ffffffffffffffffffffffffffffffffffffffff16148061060a575061060981610604610c1f565b610ab5565b5b610649576040517f08c379a000000000000000000000000000000000000000000000000000000000815260040161064090611f28565b60405180910390fd5b6106538383610c27565b505050565b600080600654905061066a3382610ce0565b60016006546106799190611f77565b6006819055508091505090565b610697610691610c1f565b82610cfe565b6106d6576040517f08c379a00000000000000000000000000000000000000000000000000000000081526004016106cd9061203f565b60405180910390fd5b6106e1838383610ddc565b505050565b600780546106f390611d60565b80601f016020809104026020016040519081016040528092919081815260200182805461071f90611d60565b801561076c5780601f106107415761010080835404028352916020019161076c565b820191906000526020600020905b81548152906001019060200180831161074f57829003601f168201915b505050505081565b61078f838383604051806020016040528060008152506109a6565b505050565b6000806002600084815260200190815260200160002060009054906101000a900473ffffffffffffffffffffffffffffffffffffffff169050600073ffffffffffffffffffffffffffffffffffffffff168173ffffffffffffffffffffffffffffffffffffffff16141561083d576040517f08c379a0000000000000000000000000000000000000000000000000000000008152600401610834906120d1565b60405180910390fd5b80915050919050565b60008073ffffffffffffffffffffffffffffffffffffffff168273ffffffffffffffffffffffffffffffffffffffff1614156108b7576040517f08c379a00000000000000000000000000000000000000000000000000000000081526004016108ae90612163565b60405180910390fd5b600360008373ffffffffffffffffffffffffffffffffffffffff1673ffffffffffffffffffffffffffffffffffffffff168152602001908152602001600020549050919050565b60606001805461090d90611d60565b80601f016020809104026020016040519081016040528092919081815260200182805461093990611d60565b80156109865780601f1061095b57610100808354040283529160200191610986565b820191906000526020600020905b81548152906001019060200180831161096957829003601f168201915b5050505050905090565b6109a261099b610c1f565b8383611043565b5050565b6109b76109b1610c1f565b83610cfe565b6109f6576040517f08c379a00000000000000000000000000000000000000000000000000000000081526004016109ed9061203f565b60405180910390fd5b610a02848484846111b0565b50505050565b6060610a1382610bb3565b610a52576040517f08c379a0000000000000000000000000000000000000000000000000000000008152600401610a49906121f5565b60405180910390fd5b6000610a5c61120c565b90506000815111610a7c5760405180602001604052806000815250610aa7565b80610a8684611223565b604051602001610a97929190612251565b6040516020818303038152906040525b915050919050565b60065481565b6000600560008473ffffffffffffffffffffffffffffffffffffffff1673ffffffffffffffffffffffffffffffffffffffff16815260200190815260200160002060008373ffffffffffffffffffffffffffffffffffffffff1673ffffffffffffffffffffffffffffffffffffffff16815260200190815260200160002060009054906101000a900460ff16905092915050565b60007f01ffc9a7000000000000000000000000000000000000000000000000000000007bffffffffffffffffffffffffffffffffffffffffffffffffffffffff1916827bffffffffffffffffffffffffffffffffffffffffffffffffffffffff1916149050919050565b60008073ffffffffffffffffffffffffffffffffffffffff166002600084815260200190815260200160002060009054906101000a900473ffffffffffffffffffffffffffffffffffffffff1673ffffffffffffffffffffffffffffffffffffffff1614159050919050565b600033905090565b816004600083815260200190815260200160002060006101000a81548173ffffffffffffffffffffffffffffffffffffffff021916908373ffffffffffffffffffffffffffffffffffffffff160217905550808273ffffffffffffffffffffffffffffffffffffffff16610c9a83610794565b73ffffffffffffffffffffffffffffffffffffffff167f8c5be1e5ebec7d5bd14f71427d1e84f3dd0314c0f7b2291e5b200ac8c7c3b92560405160405180910390a45050565b610cfa828260405180602001604052806000815250611384565b5050565b6000610d0982610bb3565b610d48576040517f08c379a0000000000000000000000000000000000000000000000000000000008152600401610d3f906122e7565b60405180910390fd5b6000610d5383610794565b90508073ffffffffffffffffffffffffffffffffffffffff168473ffffffffffffffffffffffffffffffffffffffff161480610dc257508373ffffffffffffffffffffffffffffffffffffffff16610daa846104bb565b73ffffffffffffffffffffffffffffffffffffffff16145b80610dd35750610dd28185610ab5565b5b91505092915050565b8273ffffffffffffffffffffffffffffffffffffffff16610dfc82610794565b73ffffffffffffffffffffffffffffffffffffffff1614610e52576040517f08c379a0000000000000000000000000000000000000000000000000000000008152600401610e4990612379565b60405180910390fd5b600073ffffffffffffffffffffffffffffffffffffffff168273ffffffffffffffffffffffffffffffffffffffff161415610ec2576040517f08c379a0000000000000000000000000000000000000000000000000000000008152600401610eb99061240b565b60405180910390fd5b610ecd8383836113df565b610ed8600082610c27565b6001600360008573ffffffffffffffffffffffffffffffffffffffff1673ffffffffffffffffffffffffffffffffffffffff1681526020019081526020016000206000828254610f28919061242b565b925050819055506001600360008473ffffffffffffffffffffffffffffffffffffffff1673ffffffffffffffffffffffffffffffffffffffff1681526020019081526020016000206000828254610f7f9190611f77565b92505081905550816002600083815260200190815260200160002060006101000a81548173ffffffffffffffffffffffffffffffffffffffff021916908373ffffffffffffffffffffffffffffffffffffffff160217905550808273ffffffffffffffffffffffffffffffffffffffff168473ffffffffffffffffffffffffffffffffffffffff167fddf252ad1be2c89b69c2b068fc378daa952ba7f163c4a11628f55a4df523b3ef60405160405180910390a461103e8383836113e4565b505050565b8173ffffffffffffffffffffffffffffffffffffffff168373ffffffffffffffffffffffffffffffffffffffff1614156110b2576040517f08c379a00000000000000000000000000000000000000000000000000000000081526004016110a9906124ab565b60405180910390fd5b80600560008573ffffffffffffffffffffffffffffffffffffffff1673ffffffffffffffffffffffffffffffffffffffff16815260200190815260200160002060008473ffffffffffffffffffffffffffffffffffffffff1673ffffffffffffffffffffffffffffffffffffffff16815260200190815260200160002060006101000a81548160ff0219169083151502179055508173ffffffffffffffffffffffffffffffffffffffff168373ffffffffffffffffffffffffffffffffffffffff167f17307eab39ab6107e8899845ad3d59bd9653f200f220920489ca2b5937696c31836040516111a39190611822565b60405180910390a3505050565b6111bb848484610ddc565b6111c7848484846113e9565b611206576040517f08c379a00000000000000000000000000000000000000000000000000000000081526004016111fd9061253d565b60405180910390fd5b50505050565b606060405180602001604052806000815250905090565b6060600082141561126b576040518060400160405280600181526020017f3000000000000000000000000000000000000000000000000000000000000000815250905061137f565b600082905060005b6000821461129d5780806112869061255d565b915050600a8261129691906125d5565b9150611273565b60008167ffffffffffffffff8111156112b9576112b8611b43565b5b6040519080825280601f01601f1916602001820160405280156112eb5781602001600182028036833780820191505090505b5090505b6000851461137857600182611304919061242b565b9150600a856113139190612606565b603061131f9190611f77565b60f81b81838151811061133557611334612637565b5b60200101907effffffffffffffffffffffffffffffffffffffffffffffffffffffffffffff1916908160001a905350600a8561137191906125d5565b94506112ef565b8093505050505b919050565b61138e8383611571565b61139b60008484846113e9565b6113da576040517f08c379a00000000000000000000000000000000000000000000000000000000081526004016113d19061253d565b60405180910390fd5b505050565b505050565b505050565b600061140a8473ffffffffffffffffffffffffffffffffffffffff1661174b565b15611564578373ffffffffffffffffffffffffffffffffffffffff1663150b7a02611433610c1f565b8786866040518563ffffffff1660e01b815260040161145594939291906126bb565b6020604051808303816000875af192505050801561149157506040513d601f19601f8201168201806040525081019061148e919061271c565b60015b611514573d80600081146114c1576040519150601f19603f3d011682016040523d82523d6000602084013e6114c6565b606091505b5060008151141561150c576040517f08c379a00000000000000000000000000000000000000000000000000000000081526004016115039061253d565b60405180910390fd5b805181602001fd5b63150b7a0260e01b7bffffffffffffffffffffffffffffffffffffffffffffffffffffffff1916817bffffffffffffffffffffffffffffffffffffffffffffffffffffffff191614915050611569565b600190505b949350505050565b600073ffffffffffffffffffffffffffffffffffffffff168273ffffffffffffffffffffffffffffffffffffffff1614156115e1576040517f08c379a00000000000000000000000000000000000000000000000000000000081526004016115d890612795565b60405180910390fd5b6115ea81610bb3565b1561162a576040517f08c379a000000000000000000000000000000000000000000000000000000000815260040161162190612801565b60405180910390fd5b611636600083836113df565b6001600360008473ffffffffffffffffffffffffffffffffffffffff1673ffffffffffffffffffffffffffffffffffffffff16815260200190815260200160002060008282546116869190611f77565b92505081905550816002600083815260200190815260200160002060006101000a81548173ffffffffffffffffffffffffffffffffffffffff021916908373ffffffffffffffffffffffffffffffffffffffff160217905550808273ffffffffffffffffffffffffffffffffffffffff16600073ffffffffffffffffffffffffffffffffffffffff167fddf252ad1be2c89b69c2b068fc378daa952ba7f163c4a11628f55a4df523b3ef60405160405180910390a4611747600083836113e4565b5050565b6000808273ffffffffffffffffffffffffffffffffffffffff163b119050919050565b6000604051905090565b600080fd5b600080fd5b60007fffffffff0000000000000000000000000000000000000000000000000000000082169050919050565b6117b781611782565b81146117c257600080fd5b50565b6000813590506117d4816117ae565b92915050565b6000602082840312156117f0576117ef611778565b5b60006117fe848285016117c5565b91505092915050565b60008115159050919050565b61181c81611807565b82525050565b60006020820190506118376000830184611813565b92915050565b600081519050919050565b600082825260208201905092915050565b60005b8381101561187757808201518184015260208101905061185c565b83811115611886576000848401525b50505050565b6000601f19601f8301169050919050565b60006118a88261183d565b6118b28185611848565b93506118c2818560208601611859565b6118cb8161188c565b840191505092915050565b600060208201905081810360008301526118f0818461189d565b905092915050565b6000819050919050565b61190b816118f8565b811461191657600080fd5b50565b60008135905061192881611902565b92915050565b60006020828403121561194457611943611778565b5b600061195284828501611919565b91505092915050565b600073ffffffffffffffffffffffffffffffffffffffff82169050919050565b60006119868261195b565b9050919050565b6119968161197b565b82525050565b60006020820190506119b1600083018461198d565b92915050565b6119c08161197b565b81146119cb57600080fd5b50565b6000813590506119dd816119b7565b92915050565b600080604083850312156119fa576119f9611778565b5b6000611a08858286016119ce565b9250506020611a1985828601611919565b9150509250929050565b611a2c816118f8565b82525050565b6000602082019050611a476000830184611a23565b92915050565b600080600060608486031215611a6657611a65611778565b5b6000611a74868287016119ce565b9350506020611a85868287016119ce565b9250506040611a9686828701611919565b9150509250925092565b600060208284031215611ab657611ab5611778565b5b6000611ac4848285016119ce565b91505092915050565b611ad681611807565b8114611ae157600080fd5b50565b600081359050611af381611acd565b92915050565b60008060408385031215611b1057611b0f611778565b5b6000611b1e858286016119ce565b9250506020611b2f85828601611ae4565b9150509250929050565b600080fd5b600080fd5b7f4e487b7100000000000000000000000000000000000000000000000000000000600052604160045260246000fd5b611b7b8261188c565b810181811067ffffffffffffffff82111715611b9a57611b99611b43565b5b80604052505050565b6000611bad61176e565b9050611bb98282611b72565b919050565b600067ffffffffffffffff821115611bd957611bd8611b43565b5b611be28261188c565b9050602081019050919050565b82818337600083830152505050565b6000611c11611c0c84611bbe565b611ba3565b905082815260208101848484011115611c2d57611c2c611b3e565b5b611c38848285611bef565b509392505050565b600082601f830112611c5557611c54611b39565b5b8135611c65848260208601611bfe565b91505092915050565b60008060008060808587031215611c8857611c87611778565b5b6000611c96878288016119ce565b9450506020611ca7878288016119ce565b9350506040611cb887828801611919565b925050606085013567ffffffffffffffff811115611cd957611cd861177d565b5b611ce587828801611c40565b91505092959194509250565b60008060408385031215611d0857611d07611778565b5b6000611d16858286016119ce565b9250506020611d27858286016119ce565b9150509250929050565b7f4e487b7100000000000000000000000000000000000000000000000000000000600052602260045260246000fd5b60006002820490506001821680611d7857607f821691505b60208210811415611d8c57611d8b611d31565b5b50919050565b7f4552433732313a20617070726f76656420717565727920666f72206e6f6e657860008201527f697374656e7420746f6b656e0000000000000000000000000000000000000000602082015250565b6000611dee602c83611848565b9150611df982611d92565b604082019050919050565b60006020820190508181036000830152611e1d81611de1565b9050919050565b7f4552433732313a20617070726f76616c20746f2063757272656e74206f776e6560008201527f7200000000000000000000000000000000000000000000000000000000000000602082015250565b6000611e80602183611848565b9150611e8b82611e24565b604082019050919050565b60006020820190508181036000830152611eaf81611e73565b9050919050565b7f4552433732313a20617070726f76652063616c6c6572206973206e6f74206f7760008201527f6e6572206e6f7220617070726f76656420666f7220616c6c0000000000000000602082015250565b6000611f12603883611848565b9150611f1d82611eb6565b604082019050919050565b60006020820190508181036000830152611f4181611f05565b9050919050565b7f4e487b7100000000000000000000000000000000000000000000000000000000600052601160045260246000fd5b6000611f82826118f8565b9150611f8d836118f8565b9250827fffffffffffffffffffffffffffffffffffffffffffffffffffffffffffffffff03821115611fc257611fc1611f48565b5b828201905092915050565b7f4552433732313a207472616e736665722063616c6c6572206973206e6f74206f60008201527f776e6572206e6f7220617070726f766564000000000000000000000000000000602082015250565b6000612029603183611848565b915061203482611fcd565b604082019050919050565b600060208201905081810360008301526120588161201c565b9050919050565b7f4552433732313a206f776e657220717565727920666f72206e6f6e657869737460008201527f656e7420746f6b656e0000000000000000000000000000000000000000000000602082015250565b60006120bb602983611848565b91506120c68261205f565b604082019050919050565b600060208201905081810360008301526120ea816120ae565b9050919050565b7f4552433732313a2062616c616e636520717565727920666f7220746865207a6560008201527f726f206164647265737300000000000000000000000000000000000000000000602082015250565b600061214d602a83611848565b9150612158826120f1565b604082019050919050565b6000602082019050818103600083015261217c81612140565b9050919050565b7f4552433732314d657461646174613a2055524920717565727920666f72206e6f60008201527f6e6578697374656e7420746f6b656e0000000000000000000000000000000000602082015250565b60006121df602f83611848565b91506121ea82612183565b604082019050919050565b6000602082019050818103600083015261220e816121d2565b9050919050565b600081905092915050565b600061222b8261183d565b6122358185612215565b9350612245818560208601611859565b80840191505092915050565b600061225d8285612220565b91506122698284612220565b91508190509392505050565b7f4552433732313a206f70657261746f7220717565727920666f72206e6f6e657860008201527f697374656e7420746f6b656e0000000000000000000000000000000000000000602082015250565b60006122d1602c83611848565b91506122dc82612275565b604082019050919050565b60006020820190508181036000830152612300816122c4565b9050919050565b7f4552433732313a207472616e736665722066726f6d20696e636f72726563742060008201527f6f776e6572000000000000000000000000000000000000000000000000000000602082015250565b6000612363602583611848565b915061236e82612307565b604082019050919050565b6000602082019050818103600083015261239281612356565b9050919050565b7f4552433732313a207472616e7366657220746f20746865207a65726f2061646460008201527f7265737300000000000000000000000000000000000000000000000000000000602082015250565b60006123f5602483611848565b915061240082612399565b604082019050919050565b60006020820190508181036000830152612424816123e8565b9050919050565b6000612436826118f8565b9150612441836118f8565b92508282101561245457612453611f48565b5b828203905092915050565b7f4552433732313a20617070726f766520746f2063616c6c657200000000000000600082015250565b6000612495601983611848565b91506124a08261245f565b602082019050919050565b600060208201905081810360008301526124c481612488565b9050919050565b7f4552433732313a207472616e7366657220746f206e6f6e20455243373231526560008201527f63656976657220696d706c656d656e7465720000000000000000000000000000602082015250565b6000612527603283611848565b9150612532826124cb565b604082019050919050565b600060208201905081810360008301526125568161251a565b9050919050565b6000612568826118f8565b91507fffffffffffffffffffffffffffffffffffffffffffffffffffffffffffffffff82141561259b5761259a611f48565b5b600182019050919050565b7f4e487b7100000000000000000000000000000000000000000000000000000000600052601260045260246000fd5b60006125e0826118f8565b91506125eb836118f8565b9250826125fb576125fa6125a6565b5b828204905092915050565b6000612611826118f8565b915061261c836118f8565b92508261262c5761262b6125a6565b5b828206905092915050565b7f4e487b7100000000000000000000000000000000000000000000000000000000600052603260045260246000fd5b600081519050919050565b600082825260208201905092915050565b600061268d82612666565b6126978185612671565b93506126a7818560208601611859565b6126b08161188c565b840191505092915050565b60006080820190506126d0600083018761198d565b6126dd602083018661198d565b6126ea6040830185611a23565b81810360608301526126fc8184612682565b905095945050505050565b600081519050612716816117ae565b92915050565b60006020828403121561273257612731611778565b5b600061274084828501612707565b91505092915050565b7f4552433732313a206d696e7420746f20746865207a65726f2061646472657373600082015250565b600061277f602083611848565b915061278a82612749565b602082019050919050565b600060208201905081810360008301526127ae81612772565b9050919050565b7f4552433732313a20746f6b656e20616c7265616479206d696e74656400000000600082015250565b60006127eb601c83611848565b91506127f6826127b5565b602082019050919050565b6000602082019050818103600083015261281a816127de565b905091905056fea2646970667358221220059071b3e07f67dad3373b6cb59b1882f47418693d6db53c3727ac0f0f82f26b64736f6c634300080a0033697066733a2f2f516d5a6a66527075365a7633743376585a546f6162634e394b61575765566237445776656d4c4563627a76764c47",
    "immutableReferences": {},
    "source": "pragma solidity >=0.4.22 <0.9.0;\nimport \"./ERC721.sol\";\n\ncontract NFT is ERC721 {\n  uint256 public tokenCounter;\n  string public tokenURI = \"ipfs://QmZjfRpu6Zv3t3vXZToabcN9KaWWeVb7DWvemLEcbzvvLG\";\n  constructor () public ERC721 (\"SRS1\", \"SRS1\"){\n    tokenCounter = 0;\n  }\n  \n  function createCollectible() public returns (uint256) {\n    uint256 newItemId = tokenCounter;\n    _safeMint(msg.sender, newItemId);\n    tokenCounter = tokenCounter + 1;\n    return newItemId;\n  }\n}\n",
    "sourcePath": "/Users/jackcarlson/firstNFT/contracts/NFT.sol",
    "compiler": {
        "name": "solc",
        "version": "0.8.10+commit.fc410830.Emscripten.clang"
    },
    "schemaVersion": "3.4.3",
    "updatedAt": "2022-04-10T21:26:04.244Z",
    "networkType": "ethereum",
    "devdoc": {
        "kind": "dev",
        "methods": {
            "approve(address,uint256)": {
                "details": "See {IERC721-approve}."
            },
            "balanceOf(address)": {
                "details": "See {IERC721-balanceOf}."
            },
            "getApproved(uint256)": {
                "details": "See {IERC721-getApproved}."
            },
            "isApprovedForAll(address,address)": {
                "details": "See {IERC721-isApprovedForAll}."
            },
            "name()": {
                "details": "See {IERC721Metadata-name}."
            },
            "ownerOf(uint256)": {
                "details": "See {IERC721-ownerOf}."
            },
            "safeTransferFrom(address,address,uint256)": {
                "details": "See {IERC721-safeTransferFrom}."
            },
            "safeTransferFrom(address,address,uint256,bytes)": {
                "details": "See {IERC721-safeTransferFrom}."
            },
            "setApprovalForAll(address,bool)": {
                "details": "See {IERC721-setApprovalForAll}."
            },
            "supportsInterface(bytes4)": {
                "details": "See {IERC165-supportsInterface}."
            },
            "symbol()": {
                "details": "See {IERC721Metadata-symbol}."
            },
            "tokenURI(uint256)": {
                "details": "See {IERC721Metadata-tokenURI}."
            },
            "transferFrom(address,address,uint256)": {
                "details": "See {IERC721-transferFrom}."
            }
        },
        "version": 1
    },
    "userdoc": {
        "kind": "user",
        "methods": {},
        "version": 1
    }
}